{
  "abi": [
    {
      "type": "constructor",
      "inputs": [],
      "stateMutability": "nonpayable"
    },
    {
      "type": "function",
      "name": "DENOM",
      "inputs": [],
      "outputs": [
        {
          "name": "",
          "type": "uint256",
          "internalType": "uint256"
        }
      ],
      "stateMutability": "view"
    },
    {
      "type": "function",
      "name": "allowance",
      "inputs": [
        {
          "name": "owner",
          "type": "address",
          "internalType": "address"
        },
        {
          "name": "spender",
          "type": "address",
          "internalType": "address"
        }
      ],
      "outputs": [
        {
          "name": "",
          "type": "uint256",
          "internalType": "uint256"
        }
      ],
      "stateMutability": "view"
    },
    {
      "type": "function",
      "name": "approve",
      "inputs": [
        {
          "name": "spender",
          "type": "address",
          "internalType": "address"
        },
        {
          "name": "value",
          "type": "uint256",
          "internalType": "uint256"
        }
      ],
      "outputs": [
        {
          "name": "",
          "type": "bool",
          "internalType": "bool"
        }
      ],
      "stateMutability": "nonpayable"
    },
    {
      "type": "function",
      "name": "asset",
      "inputs": [],
      "outputs": [
        {
          "name": "",
          "type": "address",
          "internalType": "address"
        }
      ],
      "stateMutability": "view"
    },
    {
      "type": "function",
      "name": "balanceOf",
      "inputs": [
        {
          "name": "account",
          "type": "address",
          "internalType": "address"
        }
      ],
      "outputs": [
        {
          "name": "",
          "type": "uint256",
          "internalType": "uint256"
        }
      ],
      "stateMutability": "view"
    },
    {
      "type": "function",
      "name": "convertToAssets",
      "inputs": [
        {
          "name": "shares",
          "type": "uint256",
          "internalType": "uint256"
        }
      ],
      "outputs": [
        {
          "name": "",
          "type": "uint256",
          "internalType": "uint256"
        }
      ],
      "stateMutability": "view"
    },
    {
      "type": "function",
      "name": "convertToShares",
      "inputs": [
        {
          "name": "assets",
          "type": "uint256",
          "internalType": "uint256"
        }
      ],
      "outputs": [
        {
          "name": "",
          "type": "uint256",
          "internalType": "uint256"
        }
      ],
      "stateMutability": "view"
    },
    {
      "type": "function",
      "name": "dankKicks",
      "inputs": [],
      "outputs": [
        {
          "name": "",
          "type": "address",
          "internalType": "contract IDankKicks"
        }
      ],
      "stateMutability": "view"
    },
    {
      "type": "function",
      "name": "decimals",
      "inputs": [],
      "outputs": [
        {
          "name": "",
          "type": "uint8",
          "internalType": "uint8"
        }
      ],
      "stateMutability": "view"
    },
    {
      "type": "function",
      "name": "deposit",
      "inputs": [
        {
          "name": "assets",
          "type": "uint256",
          "internalType": "uint256"
        },
        {
          "name": "receiver",
          "type": "address",
          "internalType": "address"
        }
      ],
      "outputs": [
        {
          "name": "",
          "type": "uint256",
          "internalType": "uint256"
        }
      ],
      "stateMutability": "nonpayable"
    },
    {
      "type": "function",
      "name": "initialize",
      "inputs": [
        {
          "name": "_dankKicks",
          "type": "address",
          "internalType": "address"
        },
        {
          "name": "_baseToken",
          "type": "address",
          "internalType": "contract IERC20"
        },
        {
          "name": "_maxMultiplier",
          "type": "uint256",
          "internalType": "uint256"
        },
        {
          "name": "_remainingMargin",
          "type": "uint256",
          "internalType": "uint256"
        },
        {
          "name": "_name",
          "type": "string",
          "internalType": "string"
        },
        {
          "name": "_symbol",
          "type": "string",
          "internalType": "string"
        }
      ],
      "outputs": [],
      "stateMutability": "nonpayable"
    },
    {
      "type": "function",
      "name": "maxBetting",
      "inputs": [],
      "outputs": [
        {
          "name": "",
          "type": "uint256",
          "internalType": "uint256"
        }
      ],
      "stateMutability": "view"
    },
    {
      "type": "function",
      "name": "maxDeposit",
      "inputs": [
        {
          "name": "",
          "type": "address",
          "internalType": "address"
        }
      ],
      "outputs": [
        {
          "name": "",
          "type": "uint256",
          "internalType": "uint256"
        }
      ],
      "stateMutability": "view"
    },
    {
      "type": "function",
      "name": "maxMint",
      "inputs": [
        {
          "name": "",
          "type": "address",
          "internalType": "address"
        }
      ],
      "outputs": [
        {
          "name": "",
          "type": "uint256",
          "internalType": "uint256"
        }
      ],
      "stateMutability": "view"
    },
    {
      "type": "function",
      "name": "maxMultiplier",
      "inputs": [],
      "outputs": [
        {
          "name": "",
          "type": "uint256",
          "internalType": "uint256"
        }
      ],
      "stateMutability": "view"
    },
    {
      "type": "function",
      "name": "maxRedeem",
      "inputs": [
        {
          "name": "owner",
          "type": "address",
          "internalType": "address"
        }
      ],
      "outputs": [
        {
          "name": "",
          "type": "uint256",
          "internalType": "uint256"
        }
      ],
      "stateMutability": "view"
    },
    {
      "type": "function",
      "name": "maxWithdraw",
      "inputs": [],
      "outputs": [
        {
          "name": "",
          "type": "uint256",
          "internalType": "uint256"
        }
      ],
      "stateMutability": "view"
    },
    {
      "type": "function",
      "name": "maxWithdraw",
      "inputs": [
        {
          "name": "owner",
          "type": "address",
          "internalType": "address"
        }
      ],
      "outputs": [
        {
          "name": "",
          "type": "uint256",
          "internalType": "uint256"
        }
      ],
      "stateMutability": "view"
    },
    {
      "type": "function",
      "name": "mint",
      "inputs": [
        {
          "name": "shares",
          "type": "uint256",
          "internalType": "uint256"
        },
        {
          "name": "receiver",
          "type": "address",
          "internalType": "address"
        }
      ],
      "outputs": [
        {
          "name": "",
          "type": "uint256",
          "internalType": "uint256"
        }
      ],
      "stateMutability": "nonpayable"
    },
    {
      "type": "function",
      "name": "name",
      "inputs": [],
      "outputs": [
        {
          "name": "",
          "type": "string",
          "internalType": "string"
        }
      ],
      "stateMutability": "view"
    },
    {
      "type": "function",
      "name": "previewDeposit",
      "inputs": [
        {
          "name": "assets",
          "type": "uint256",
          "internalType": "uint256"
        }
      ],
      "outputs": [
        {
          "name": "",
          "type": "uint256",
          "internalType": "uint256"
        }
      ],
      "stateMutability": "view"
    },
    {
      "type": "function",
      "name": "previewMint",
      "inputs": [
        {
          "name": "shares",
          "type": "uint256",
          "internalType": "uint256"
        }
      ],
      "outputs": [
        {
          "name": "",
          "type": "uint256",
          "internalType": "uint256"
        }
      ],
      "stateMutability": "view"
    },
    {
      "type": "function",
      "name": "previewRedeem",
      "inputs": [
        {
          "name": "shares",
          "type": "uint256",
          "internalType": "uint256"
        }
      ],
      "outputs": [
        {
          "name": "",
          "type": "uint256",
          "internalType": "uint256"
        }
      ],
      "stateMutability": "view"
    },
    {
      "type": "function",
      "name": "previewWithdraw",
      "inputs": [
        {
          "name": "assets",
          "type": "uint256",
          "internalType": "uint256"
        }
      ],
      "outputs": [
        {
          "name": "",
          "type": "uint256",
          "internalType": "uint256"
        }
      ],
      "stateMutability": "view"
    },
    {
      "type": "function",
      "name": "redeem",
      "inputs": [
        {
          "name": "shares",
          "type": "uint256",
          "internalType": "uint256"
        },
        {
          "name": "receiver",
          "type": "address",
          "internalType": "address"
        },
        {
          "name": "owner",
          "type": "address",
          "internalType": "address"
        }
      ],
      "outputs": [
        {
          "name": "",
          "type": "uint256",
          "internalType": "uint256"
        }
      ],
      "stateMutability": "nonpayable"
    },
    {
      "type": "function",
      "name": "remainingMargin",
      "inputs": [],
      "outputs": [
        {
          "name": "",
          "type": "uint256",
          "internalType": "uint256"
        }
      ],
      "stateMutability": "view"
    },
    {
      "type": "function",
      "name": "symbol",
      "inputs": [],
      "outputs": [
        {
          "name": "",
          "type": "string",
          "internalType": "string"
        }
      ],
      "stateMutability": "view"
    },
    {
      "type": "function",
      "name": "totalAssets",
      "inputs": [],
      "outputs": [
        {
          "name": "",
          "type": "uint256",
          "internalType": "uint256"
        }
      ],
      "stateMutability": "view"
    },
    {
      "type": "function",
      "name": "totalSupply",
      "inputs": [],
      "outputs": [
        {
          "name": "",
          "type": "uint256",
          "internalType": "uint256"
        }
      ],
      "stateMutability": "view"
    },
    {
      "type": "function",
      "name": "transfer",
      "inputs": [
        {
          "name": "to",
          "type": "address",
          "internalType": "address"
        },
        {
          "name": "value",
          "type": "uint256",
          "internalType": "uint256"
        }
      ],
      "outputs": [
        {
          "name": "",
          "type": "bool",
          "internalType": "bool"
        }
      ],
      "stateMutability": "nonpayable"
    },
    {
      "type": "function",
      "name": "transferFrom",
      "inputs": [
        {
          "name": "from",
          "type": "address",
          "internalType": "address"
        },
        {
          "name": "to",
          "type": "address",
          "internalType": "address"
        },
        {
          "name": "value",
          "type": "uint256",
          "internalType": "uint256"
        }
      ],
      "outputs": [
        {
          "name": "",
          "type": "bool",
          "internalType": "bool"
        }
      ],
      "stateMutability": "nonpayable"
    },
    {
      "type": "function",
      "name": "withdraw",
      "inputs": [
        {
          "name": "assets",
          "type": "uint256",
          "internalType": "uint256"
        },
        {
          "name": "receiver",
          "type": "address",
          "internalType": "address"
        },
        {
          "name": "owner",
          "type": "address",
          "internalType": "address"
        }
      ],
      "outputs": [
        {
          "name": "",
          "type": "uint256",
          "internalType": "uint256"
        }
      ],
      "stateMutability": "nonpayable"
    },
    {
      "type": "function",
      "name": "withdrawWinnings",
      "inputs": [
        {
          "name": "amount",
          "type": "uint256",
          "internalType": "uint256"
        }
      ],
      "outputs": [],
      "stateMutability": "nonpayable"
    },
    {
      "type": "event",
      "name": "Approval",
      "inputs": [
        {
          "name": "owner",
          "type": "address",
          "indexed": true,
          "internalType": "address"
        },
        {
          "name": "spender",
          "type": "address",
          "indexed": true,
          "internalType": "address"
        },
        {
          "name": "value",
          "type": "uint256",
          "indexed": false,
          "internalType": "uint256"
        }
      ],
      "anonymous": false
    },
    {
      "type": "event",
      "name": "Deposit",
      "inputs": [
        {
          "name": "sender",
          "type": "address",
          "indexed": true,
          "internalType": "address"
        },
        {
          "name": "owner",
          "type": "address",
          "indexed": true,
          "internalType": "address"
        },
        {
          "name": "assets",
          "type": "uint256",
          "indexed": false,
          "internalType": "uint256"
        },
        {
          "name": "shares",
          "type": "uint256",
          "indexed": false,
          "internalType": "uint256"
        }
      ],
      "anonymous": false
    },
    {
      "type": "event",
      "name": "Initialized",
      "inputs": [
        {
          "name": "version",
          "type": "uint64",
          "indexed": false,
          "internalType": "uint64"
        }
      ],
      "anonymous": false
    },
    {
      "type": "event",
      "name": "Transfer",
      "inputs": [
        {
          "name": "from",
          "type": "address",
          "indexed": true,
          "internalType": "address"
        },
        {
          "name": "to",
          "type": "address",
          "indexed": true,
          "internalType": "address"
        },
        {
          "name": "value",
          "type": "uint256",
          "indexed": false,
          "internalType": "uint256"
        }
      ],
      "anonymous": false
    },
    {
      "type": "event",
      "name": "Withdraw",
      "inputs": [
        {
          "name": "sender",
          "type": "address",
          "indexed": true,
          "internalType": "address"
        },
        {
          "name": "receiver",
          "type": "address",
          "indexed": true,
          "internalType": "address"
        },
        {
          "name": "owner",
          "type": "address",
          "indexed": true,
          "internalType": "address"
        },
        {
          "name": "assets",
          "type": "uint256",
          "indexed": false,
          "internalType": "uint256"
        },
        {
          "name": "shares",
          "type": "uint256",
          "indexed": false,
          "internalType": "uint256"
        }
      ],
      "anonymous": false
    },
    {
      "type": "error",
      "name": "AddressEmptyCode",
      "inputs": [
        {
          "name": "target",
          "type": "address",
          "internalType": "address"
        }
      ]
    },
    {
      "type": "error",
      "name": "AddressInsufficientBalance",
      "inputs": [
        {
          "name": "account",
          "type": "address",
          "internalType": "address"
        }
      ]
    },
    {
      "type": "error",
      "name": "ERC20InsufficientAllowance",
      "inputs": [
        {
          "name": "spender",
          "type": "address",
          "internalType": "address"
        },
        {
          "name": "allowance",
          "type": "uint256",
          "internalType": "uint256"
        },
        {
          "name": "needed",
          "type": "uint256",
          "internalType": "uint256"
        }
      ]
    },
    {
      "type": "error",
      "name": "ERC20InsufficientBalance",
      "inputs": [
        {
          "name": "sender",
          "type": "address",
          "internalType": "address"
        },
        {
          "name": "balance",
          "type": "uint256",
          "internalType": "uint256"
        },
        {
          "name": "needed",
          "type": "uint256",
          "internalType": "uint256"
        }
      ]
    },
    {
      "type": "error",
      "name": "ERC20InvalidApprover",
      "inputs": [
        {
          "name": "approver",
          "type": "address",
          "internalType": "address"
        }
      ]
    },
    {
      "type": "error",
      "name": "ERC20InvalidReceiver",
      "inputs": [
        {
          "name": "receiver",
          "type": "address",
          "internalType": "address"
        }
      ]
    },
    {
      "type": "error",
      "name": "ERC20InvalidSender",
      "inputs": [
        {
          "name": "sender",
          "type": "address",
          "internalType": "address"
        }
      ]
    },
    {
      "type": "error",
      "name": "ERC20InvalidSpender",
      "inputs": [
        {
          "name": "spender",
          "type": "address",
          "internalType": "address"
        }
      ]
    },
    {
      "type": "error",
      "name": "ERC4626ExceededMaxDeposit",
      "inputs": [
        {
          "name": "receiver",
          "type": "address",
          "internalType": "address"
        },
        {
          "name": "assets",
          "type": "uint256",
          "internalType": "uint256"
        },
        {
          "name": "max",
          "type": "uint256",
          "internalType": "uint256"
        }
      ]
    },
    {
      "type": "error",
      "name": "ERC4626ExceededMaxMint",
      "inputs": [
        {
          "name": "receiver",
          "type": "address",
          "internalType": "address"
        },
        {
          "name": "shares",
          "type": "uint256",
          "internalType": "uint256"
        },
        {
          "name": "max",
          "type": "uint256",
          "internalType": "uint256"
        }
      ]
    },
    {
      "type": "error",
      "name": "ERC4626ExceededMaxRedeem",
      "inputs": [
        {
          "name": "owner",
          "type": "address",
          "internalType": "address"
        },
        {
          "name": "shares",
          "type": "uint256",
          "internalType": "uint256"
        },
        {
          "name": "max",
          "type": "uint256",
          "internalType": "uint256"
        }
      ]
    },
    {
      "type": "error",
      "name": "ERC4626ExceededMaxWithdraw",
      "inputs": [
        {
          "name": "owner",
          "type": "address",
          "internalType": "address"
        },
        {
          "name": "assets",
          "type": "uint256",
          "internalType": "uint256"
        },
        {
          "name": "max",
          "type": "uint256",
          "internalType": "uint256"
        }
      ]
    },
    {
      "type": "error",
      "name": "FailedInnerCall",
      "inputs": []
    },
    {
      "type": "error",
      "name": "InvalidInitialization",
      "inputs": []
    },
    {
      "type": "error",
      "name": "MathOverflowedMulDiv",
      "inputs": []
    },
    {
      "type": "error",
      "name": "NotInitializing",
      "inputs": []
    },
    {
      "type": "error",
      "name": "SafeERC20FailedOperation",
      "inputs": [
        {
          "name": "token",
          "type": "address",
          "internalType": "address"
        }
      ]
    }
  ],
  "bytecode": {
    "object": "0x608060405234801561001057600080fd5b5061001961001e565b6100d0565b7ff0c57e16840df040f15088dc2f81fe391c3923bec73e23a9662efc9c229c6a00805468010000000000000000900460ff161561006e5760405163f92ee8a960e01b815260040160405180910390fd5b80546001600160401b03908116146100cd5780546001600160401b0319166001600160401b0390811782556040519081527fc7f505b2f371ae2175ee4913f4499e1f2633a7b5936321eed1cdaeb6115181d29060200160405180910390a15b50565b611d68806100df6000396000f3fe608060405234801561001057600080fd5b50600436106101fb5760003560e01c806370a082311161011a578063ba087652116100ad578063d905777e1161007c578063d905777e146103ff578063dd62ed3e14610412578063e001ff5214610425578063ef8b30f7146103d9578063fe2e2c731461043857600080fd5b8063ba087652146103c6578063c63d75b614610314578063c6e6f592146103d9578063ce96cb77146103ec57600080fd5b8063a9059cbb116100e9578063a9059cbb14610385578063ac7a1b5b14610398578063b3d7f6b9146103a0578063b460af94146103b357600080fd5b806370a082311461034f57806375c4b8161461036257806394bf804d1461036a57806395d89b411461037d57600080fd5b806318160ddd11610192578063402d267d11610161578063402d267d146103145780634cdad5061461023957806369db0129146103295780636e553f651461033c57600080fd5b806318160ddd146102a057806323b872dd146102c7578063313ce567146102da57806338d52e0f146102f457600080fd5b8063095ea7b3116101ce578063095ea7b31461024c5780630a28a4771461026f578063147947021461028257806316343da41461029757600080fd5b80630187aea01461020057806301e1d1141461021c57806306fdde031461022457806307a2d13a14610239575b600080fd5b61020960005481565b6040519081526020015b60405180910390f35b610209610441565b61022c6104c5565b60405161021391906116a6565b6102096102473660046116d9565b610588565b61025f61025a366004611707565b61059b565b6040519015158152602001610213565b61020961027d3660046116d9565b6105b3565b6102956102903660046116d9565b6105c0565b005b61020961271081565b7f52c63247e1f47db19d5ce0460030c497f067ca4cebf71ba98eeadabe20bace0254610209565b61025f6102d5366004611733565b610630565b6102e2610656565b60405160ff9091168152602001610213565b6102fc610682565b6040516001600160a01b039091168152602001610213565b610209610322366004611774565b5060001990565b6002546102fc906001600160a01b031681565b61020961034a366004611791565b61069e565b61020961035d366004611774565b6106c4565b6102096106ec565b610209610378366004611791565b610714565b61022c610732565b61025f610393366004611707565b610771565b61020961077f565b6102096103ae3660046116d9565b610879565b6102096103c13660046117c1565b610886565b6102096103d43660046117c1565b6108de565b6102096103e73660046116d9565b61092d565b6102096103fa366004611774565b61093a565b61020961040d366004611774565b61094f565b610209610420366004611803565b61095a565b6102956104333660046118d4565b6109a4565b61020960015481565b600080600080516020611d1383398151915280546040516370a0823160e01b81523060048201529192506001600160a01b0316906370a0823190602401602060405180830381865afa15801561049b573d6000803e3d6000fd5b505050506040513d601f19601f820116820180604052508101906104bf919061196f565b91505090565b7f52c63247e1f47db19d5ce0460030c497f067ca4cebf71ba98eeadabe20bace038054606091600080516020611cf38339815191529161050490611988565b80601f016020809104026020016040519081016040528092919081815260200182805461053090611988565b801561057d5780601f106105525761010080835404028352916020019161057d565b820191906000526020600020905b81548152906001019060200180831161056057829003601f168201915b505050505091505090565b6000610595826000610ae8565b92915050565b6000336105a9818585610b41565b5060019392505050565b6000610595826001610b53565b6002546001600160a01b031633146106105760405162461bcd60e51b815260206004820152600e60248201526d6f6e6c792044616e6b4b69636b7360901b60448201526064015b60405180910390fd5b61062d61061b610682565b6002546001600160a01b031683610ba2565b50565b60003361063e858285610c01565b610649858585610c54565b60019150505b9392505050565b600080600080516020611d138339815191529050600081546104bf9190600160a01b900460ff166119d8565b600080516020611d13833981519152546001600160a01b031690565b600060001960006106ae8561092d565b90506106bc33858784610cb3565b949350505050565b6001600160a01b03166000908152600080516020611cf3833981519152602052604090205490565b600080546001546106fb610441565b6107059190611a12565b61070f9190611a3f565b905090565b6000600019600061072485610879565b90506106bc33858388610cb3565b7f52c63247e1f47db19d5ce0460030c497f067ca4cebf71ba98eeadabe20bace048054606091600080516020611cf38339815191529161050490611988565b6000336105a9818585610c54565b60025460009081906001600160a01b031663934083a961079d610682565b6040516001600160e01b031960e084901b1681526001600160a01b039091166004820152602401602060405180830381865afa1580156107e1573d6000803e3d6000fd5b505050506040513d601f19601f82011682018060405250810190610805919061196f565b905060006127106000548361081a9190611a12565b6108249190611a3f565b90506000600154600054846108399190611a12565b6108439190611a3f565b905061084d610441565b81111561085e576000935050505090565b80610867610441565b6108719190611a53565b935050505090565b6000610595826001610ae8565b6000806108928361093a565b9050808511156108bb57828582604051633fa733bb60e21b8152600401610607939291906119f1565b60006108c6866105b3565b90506108d53386868985610d40565b95945050505050565b6000806108ea8361094f565b90508085111561091357828582604051632e52afbb60e21b8152600401610607939291906119f1565b600061091e86610588565b90506108d5338686848a610d40565b6000610595826000610b53565b6000610595610948836106c4565b6000610ae8565b6000610595826106c4565b6001600160a01b0391821660009081527f52c63247e1f47db19d5ce0460030c497f067ca4cebf71ba98eeadabe20bace016020908152604080832093909416825291909152205490565b7ff0c57e16840df040f15088dc2f81fe391c3923bec73e23a9662efc9c229c6a008054600160401b810460ff16159067ffffffffffffffff166000811580156109ea5750825b905060008267ffffffffffffffff166001148015610a075750303b155b905081158015610a15575080155b15610a335760405163f92ee8a960e01b815260040160405180910390fd5b845467ffffffffffffffff191660011785558315610a5d57845460ff60401b1916600160401b1785555b600280546001600160a01b0319166001600160a01b038d1617905560008990556001889055610a8c8787610e49565b610a958a610e5f565b8315610adb57845460ff60401b19168555604051600181527fc7f505b2f371ae2175ee4913f4499e1f2633a7b5936321eed1cdaeb6115181d29060200160405180910390a15b5050505050505050505050565b600061064f610af5610441565b610b00906001611a66565b610b0c6000600a611b5d565b7f52c63247e1f47db19d5ce0460030c497f067ca4cebf71ba98eeadabe20bace0254610b389190611a66565b85919085610e70565b610b4e8383836001610ebf565b505050565b600061064f610b6382600a611b5d565b7f52c63247e1f47db19d5ce0460030c497f067ca4cebf71ba98eeadabe20bace0254610b8f9190611a66565b610b97610441565b610b38906001611a66565b6040516001600160a01b03838116602483015260448201839052610b4e91859182169063a9059cbb906064015b604051602081830303815290604052915060e01b6020820180516001600160e01b038381831617835250505050610f9e565b6000610c0d848461095a565b90506000198114610c4e5781811015610c3f57828183604051637dc7a0d960e11b8152600401610607939291906119f1565b610c4e84848484036000610ebf565b50505050565b6001600160a01b038316610c7e57604051634b637e8f60e11b815260006004820152602401610607565b6001600160a01b038216610ca85760405163ec442f0560e01b815260006004820152602401610607565b610b4e838383611001565b600080516020611d138339815191528054610cd9906001600160a01b031686308661112c565b610ce38483611165565b836001600160a01b0316856001600160a01b03167fdcbc1c05240f31ff3ad067ef1ee35ce4997762752e3a095284754544f4c709d78585604051610d31929190918252602082015260400190565b60405180910390a35050505050565b6002546000906001600160a01b031663934083a9610d5c610682565b6040516001600160e01b031960e084901b1681526001600160a01b039091166004820152602401602060405180830381865afa158015610da0573d6000803e3d6000fd5b505050506040513d601f19601f82011682018060405250810190610dc4919061196f565b9050600061271060005483610dd99190611a12565b610de39190611a3f565b905083610dee61077f565b1015610e335760405162461bcd60e51b81526020600482015260146024820152731dda5d1a191c985dc818d85c081c995858da195960621b6044820152606401610607565b610e40878787878761119b565b50505050505050565b610e51611250565b610e5b828261129b565b5050565b610e67611250565b61062d816112ec565b600080610e7e86868661135e565b9050610e8983611422565b8015610ea5575060008480610ea057610ea0611a29565b868809115b156108d557610eb5600182611a66565b9695505050505050565b600080516020611cf38339815191526001600160a01b038516610ef85760405163e602df0560e01b815260006004820152602401610607565b6001600160a01b038416610f2257604051634a1406b160e11b815260006004820152602401610607565b6001600160a01b03808616600090815260018301602090815260408083209388168352929052208390558115610f9757836001600160a01b0316856001600160a01b03167f8c5be1e5ebec7d5bd14f71427d1e84f3dd0314c0f7b2291e5b200ac8c7c3b92585604051610d3191815260200190565b5050505050565b6000610fb36001600160a01b0384168361144f565b90508051600014158015610fd8575080806020019051810190610fd69190611b6c565b155b15610b4e57604051635274afe760e01b81526001600160a01b0384166004820152602401610607565b600080516020611cf38339815191526001600160a01b03841661103d57818160020160008282546110329190611a66565b9091555061109c9050565b6001600160a01b0384166000908152602082905260409020548281101561107d5784818460405163391434e360e21b8152600401610607939291906119f1565b6001600160a01b03851660009081526020839052604090209083900390555b6001600160a01b0383166110ba5760028101805483900390556110d9565b6001600160a01b03831660009081526020829052604090208054830190555b826001600160a01b0316846001600160a01b03167fddf252ad1be2c89b69c2b068fc378daa952ba7f163c4a11628f55a4df523b3ef8460405161111e91815260200190565b60405180910390a350505050565b6040516001600160a01b038481166024830152838116604483015260648201839052610c4e9186918216906323b872dd90608401610bcf565b6001600160a01b03821661118f5760405163ec442f0560e01b815260006004820152602401610607565b610e5b60008383611001565b600080516020611d138339815191526001600160a01b03868116908516146111c8576111c8848784610c01565b6111d2848361145d565b80546111e8906001600160a01b03168685610ba2565b836001600160a01b0316856001600160a01b0316876001600160a01b03167ffbde797d201c681b91056529119e0b02407c7bb96a4a2c75c01fc9667232c8db8686604051611240929190918252602082015260400190565b60405180910390a4505050505050565b7ff0c57e16840df040f15088dc2f81fe391c3923bec73e23a9662efc9c229c6a0054600160401b900460ff1661129957604051631afcd79f60e31b815260040160405180910390fd5b565b6112a3611250565b600080516020611cf38339815191527f52c63247e1f47db19d5ce0460030c497f067ca4cebf71ba98eeadabe20bace036112dd8482611bde565b5060048101610c4e8382611bde565b6112f4611250565b600080516020611d1383398151915260008061130f84611493565b915091508161131f576012611321565b805b83546001600160a81b031916600160a01b60ff92909216919091026001600160a01b031916176001600160a01b0394909416939093179091555050565b60008383028160001985870982811083820303915050806000036113955783828161138b5761138b611a29565b049250505061064f565b8084116113b55760405163227bc15360e01b815260040160405180910390fd5b6000848688096000868103871696879004966002600389028118808a02820302808a02820302808a02820302808a02820302808a02820302808a02909103029181900381900460010186841190950394909402919094039290920491909117919091029150509392505050565b6000600282600381111561143857611438611c9e565b6114429190611cb4565b60ff166001149050919050565b606061064f8383600061156f565b6001600160a01b03821661148757604051634b637e8f60e11b815260006004820152602401610607565b610e5b82600083611001565b60408051600481526024810182526020810180516001600160e01b031663313ce56760e01b17905290516000918291829182916001600160a01b038716916114da91611cd6565b600060405180830381855afa9150503d8060008114611515576040519150601f19603f3d011682016040523d82523d6000602084013e61151a565b606091505b509150915081801561152e57506020815110155b1561156257600081806020019051810190611549919061196f565b905060ff8111611560576001969095509350505050565b505b5060009485945092505050565b6060814710156115945760405163cd78605960e01b8152306004820152602401610607565b600080856001600160a01b031684866040516115b09190611cd6565b60006040518083038185875af1925050503d80600081146115ed576040519150601f19603f3d011682016040523d82523d6000602084013e6115f2565b606091505b5091509150610eb58683836060826116125761160d82611659565b61064f565b815115801561162957506001600160a01b0384163b155b1561165257604051639996b31560e01b81526001600160a01b0385166004820152602401610607565b508061064f565b8051156116695780518082602001fd5b604051630a12f52160e11b815260040160405180910390fd5b60005b8381101561169d578181015183820152602001611685565b50506000910152565b60208152600082518060208401526116c5816040850160208701611682565b601f01601f19169190910160400192915050565b6000602082840312156116eb57600080fd5b5035919050565b6001600160a01b038116811461062d57600080fd5b6000806040838503121561171a57600080fd5b8235611725816116f2565b946020939093013593505050565b60008060006060848603121561174857600080fd5b8335611753816116f2565b92506020840135611763816116f2565b929592945050506040919091013590565b60006020828403121561178657600080fd5b813561064f816116f2565b600080604083850312156117a457600080fd5b8235915060208301356117b6816116f2565b809150509250929050565b6000806000606084860312156117d657600080fd5b8335925060208401356117e8816116f2565b915060408401356117f8816116f2565b809150509250925092565b6000806040838503121561181657600080fd5b8235611821816116f2565b915060208301356117b6816116f2565b634e487b7160e01b600052604160045260246000fd5b600082601f83011261185857600080fd5b813567ffffffffffffffff8082111561187357611873611831565b604051601f8301601f19908116603f0116810190828211818310171561189b5761189b611831565b816040528381528660208588010111156118b457600080fd5b836020870160208301376000602085830101528094505050505092915050565b60008060008060008060c087890312156118ed57600080fd5b86356118f8816116f2565b95506020870135611908816116f2565b94506040870135935060608701359250608087013567ffffffffffffffff8082111561193357600080fd5b61193f8a838b01611847565b935060a089013591508082111561195557600080fd5b5061196289828a01611847565b9150509295509295509295565b60006020828403121561198157600080fd5b5051919050565b600181811c9082168061199c57607f821691505b6020821081036119bc57634e487b7160e01b600052602260045260246000fd5b50919050565b634e487b7160e01b600052601160045260246000fd5b60ff8181168382160190811115610595576105956119c2565b6001600160a01b039390931683526020830191909152604082015260600190565b8082028115828204841417610595576105956119c2565b634e487b7160e01b600052601260045260246000fd5b600082611a4e57611a4e611a29565b500490565b81810381811115610595576105956119c2565b80820180821115610595576105956119c2565b600181815b80851115611ab4578160001904821115611a9a57611a9a6119c2565b80851615611aa757918102915b93841c9390800290611a7e565b509250929050565b600082611acb57506001610595565b81611ad857506000610595565b8160018114611aee5760028114611af857611b14565b6001915050610595565b60ff841115611b0957611b096119c2565b50506001821b610595565b5060208310610133831016604e8410600b8410161715611b37575081810a610595565b611b418383611a79565b8060001904821115611b5557611b556119c2565b029392505050565b600061064f60ff841683611abc565b600060208284031215611b7e57600080fd5b8151801515811461064f57600080fd5b601f821115610b4e576000816000526020600020601f850160051c81016020861015611bb75750805b601f850160051c820191505b81811015611bd657828155600101611bc3565b505050505050565b815167ffffffffffffffff811115611bf857611bf8611831565b611c0c81611c068454611988565b84611b8e565b602080601f831160018114611c415760008415611c295750858301515b600019600386901b1c1916600185901b178555611bd6565b600085815260208120601f198616915b82811015611c7057888601518255948401946001909101908401611c51565b5085821015611c8e5787850151600019600388901b60f8161c191681555b5050505050600190811b01905550565b634e487b7160e01b600052602160045260246000fd5b600060ff831680611cc757611cc7611a29565b8060ff84160691505092915050565b60008251611ce8818460208701611682565b919091019291505056fe52c63247e1f47db19d5ce0460030c497f067ca4cebf71ba98eeadabe20bace000773e532dfede91f04b12a73d3d2acd361424f41f76b4fb79f090161e36b4e00a2646970667358221220837ff57753588f55c34c43dd4eb3ae13d3fec18bb2b0c074fbce9247b153a95e64736f6c63430008180033",
    "linkReferences": {}
  },
  "methodIdentifiers": {
    "DENOM()": "16343da4",
    "allowance(address,address)": "dd62ed3e",
    "approve(address,uint256)": "095ea7b3",
    "asset()": "38d52e0f",
    "balanceOf(address)": "70a08231",
    "convertToAssets(uint256)": "07a2d13a",
    "convertToShares(uint256)": "c6e6f592",
    "dankKicks()": "69db0129",
    "decimals()": "313ce567",
    "deposit(uint256,address)": "6e553f65",
    "initialize(address,address,uint256,uint256,string,string)": "e001ff52",
    "maxBetting()": "75c4b816",
    "maxDeposit(address)": "402d267d",
    "maxMint(address)": "c63d75b6",
    "maxMultiplier()": "0187aea0",
    "maxRedeem(address)": "d905777e",
    "maxWithdraw()": "ac7a1b5b",
    "maxWithdraw(address)": "ce96cb77",
    "mint(uint256,address)": "94bf804d",
    "name()": "06fdde03",
    "previewDeposit(uint256)": "ef8b30f7",
    "previewMint(uint256)": "b3d7f6b9",
    "previewRedeem(uint256)": "4cdad506",
    "previewWithdraw(uint256)": "0a28a477",
    "redeem(uint256,address,address)": "ba087652",
    "remainingMargin()": "fe2e2c73",
    "symbol()": "95d89b41",
    "totalAssets()": "01e1d114",
    "totalSupply()": "18160ddd",
    "transfer(address,uint256)": "a9059cbb",
    "transferFrom(address,address,uint256)": "23b872dd",
    "withdraw(uint256,address,address)": "b460af94",
    "withdrawWinnings(uint256)": "14794702"
  },
  "id": 69
}