{
  "_format": "hh-sol-artifact-1",
  "contractName": "DankFront",
  "sourceName": "contracts/DankFront.sol",
  "abi": [
    {
      "inputs": [
        {
          "internalType": "address",
          "name": "dankKickAddress",
          "type": "address"
        },
        {
          "internalType": "address",
          "name": "token",
          "type": "address"
        },
        {
          "internalType": "uint256",
          "name": "latestN",
          "type": "uint256"
        }
      ],
      "name": "getLeaderBoard",
      "outputs": [
        {
          "components": [
            {
              "internalType": "address",
              "name": "userAddress",
              "type": "address"
            },
            {
              "internalType": "uint256",
              "name": "totalAmount",
              "type": "uint256"
            },
            {
              "internalType": "uint256",
              "name": "totalReward",
              "type": "uint256"
            }
          ],
          "internalType": "struct DankFront.TopPlayerInfo[]",
          "name": "topPlayers",
          "type": "tuple[]"
        }
      ],
      "stateMutability": "view",
      "type": "function"
    },
    {
      "inputs": [
        {
          "internalType": "address",
          "name": "dankKickAddress",
          "type": "address"
        },
        {
          "internalType": "address",
          "name": "userAddress",
          "type": "address"
        },
        {
          "internalType": "uint256",
          "name": "limit",
          "type": "uint256"
        },
        {
          "internalType": "uint256",
          "name": "skip",
          "type": "uint256"
        }
      ],
      "name": "getParticipants",
      "outputs": [
        {
          "components": [
            {
              "internalType": "address",
              "name": "userAddress",
              "type": "address"
            },
            {
              "internalType": "address",
              "name": "token",
              "type": "address"
            },
            {
              "internalType": "uint256",
              "name": "endedAt",
              "type": "uint256"
            },
            {
              "internalType": "uint256",
              "name": "amount",
              "type": "uint256"
            },
            {
              "internalType": "uint256",
              "name": "reward",
              "type": "uint256"
            },
            {
              "components": [
                {
                  "internalType": "bool",
                  "name": "isSuccess",
                  "type": "bool"
                },
                {
                  "internalType": "bool",
                  "name": "direction",
                  "type": "bool"
                },
                {
                  "internalType": "bool",
                  "name": "haveDirection",
                  "type": "bool"
                }
              ],
              "internalType": "struct DankKick.GoalPrediction",
              "name": "prediction",
              "type": "tuple"
            },
            {
              "components": [
                {
                  "internalType": "bool",
                  "name": "isSuccess",
                  "type": "bool"
                },
                {
                  "internalType": "bool",
                  "name": "direction",
                  "type": "bool"
                },
                {
                  "internalType": "bool",
                  "name": "isWin",
                  "type": "bool"
                }
              ],
              "internalType": "struct DankKick.GameResult",
              "name": "result",
              "type": "tuple"
            }
          ],
          "internalType": "struct DankFront.ParticipantInfo[]",
          "name": "participants",
          "type": "tuple[]"
        }
      ],
      "stateMutability": "view",
      "type": "function"
    }
  ],
  "bytecode": "0x608060405234801561001057600080fd5b50611361806100206000396000f3fe608060405234801561001057600080fd5b50600436106100365760003560e01c8063780014431461003b578063cc3a8c731461006b575b600080fd5b610055600480360381019061005091906109d2565b61009b565b6040516100629190610b34565b60405180910390f35b61008560048036038101906100809190610b56565b6104ce565b6040516100929190610d9c565b60405180910390f35b6060600084905060008173ffffffffffffffffffffffffffffffffffffffff16631967fc476040518163ffffffff1660e01b8152600401602060405180830381865afa1580156100ef573d6000803e3d6000fd5b505050506040513d601f19601f820116820180604052508101906101139190610dd3565b905060008185116101245781610126565b845b67ffffffffffffffff81111561013f5761013e610e00565b5b60405190808252806020026020018201604052801561017857816020015b610165610830565b81526020019060019003908161015d5790505b5090506000808390505b86841161019057600061019d565b868461019c9190610e5e565b5b811115610414576000806000808873ffffffffffffffffffffffffffffffffffffffff16634b29b668866040518263ffffffff1660e01b81526004016101e39190610ea1565b6101a060405180830381865afa158015610201573d6000803e3d6000fd5b505050506040513d601f19601f820116820180604052508101906102259190611027565b505050955095509550505093508b73ffffffffffffffffffffffffffffffffffffffff168373ffffffffffffffffffffffffffffffffffffffff161461026e5750505050610401565b60007fffffffffffffffffffffffffffffffffffffffffffffffffffffffffffffffff905060005b885181101561030b578573ffffffffffffffffffffffffffffffffffffffff168982815181106102c9576102c86110f5565b5b60200260200101516000015173ffffffffffffffffffffffffffffffffffffffff16036102f85780915061030b565b808061030390611124565b915050610296565b507fffffffffffffffffffffffffffffffffffffffffffffffffffffffffffffffff81101561039f5782888281518110610348576103476110f5565b5b6020026020010151602001818151610360919061116c565b915081815250508188828151811061037b5761037a6110f5565b5b6020026020010151604001818151610393919061116c565b915081815250506103fb565b60405180606001604052808673ffffffffffffffffffffffffffffffffffffffff168152602001848152602001838152508888806103dc90611124565b9950815181106103ef576103ee6110f5565b5b60200260200101819052505b50505050505b808061040c906111c2565b915050610182565b508067ffffffffffffffff81111561042f5761042e610e00565b5b60405190808252806020026020018201604052801561046857816020015b610455610830565b81526020019060019003908161044d5790505b50945060005b818110156104c257828181518110610489576104886110f5565b5b60200260200101518682815181106104a4576104a36110f5565b5b602002602001018190525080806104ba90611124565b91505061046e565b50505050509392505050565b606060008590508367ffffffffffffffff8111156104ef576104ee610e00565b5b60405190808252806020026020018201604052801561052857816020015b610515610867565b81526020019060019003908161050d5790505b50915060006060600073ffffffffffffffffffffffffffffffffffffffff168773ffffffffffffffffffffffffffffffffffffffff16036105e457848373ffffffffffffffffffffffffffffffffffffffff16631967fc476040518163ffffffff1660e01b8152600401602060405180830381865afa1580156105af573d6000803e3d6000fd5b505050506040513d601f19601f820116820180604052508101906105d39190610dd3565b6105dd9190610e5e565b9150610675565b8273ffffffffffffffffffffffffffffffffffffffff1663f6b0692a886040518263ffffffff1660e01b815260040161061d91906111fa565b600060405180830381865afa15801561063a573d6000803e3d6000fd5b505050506040513d6000823e3d601f19601f8201168201806040525081019061066391906112e2565b90508481516106729190610e5e565b91505b60008290505b868311610689576000610696565b86836106959190610e5e565b5b8111156108245760008073ffffffffffffffffffffffffffffffffffffffff168973ffffffffffffffffffffffffffffffffffffffff16146106f2578282815181106106e5576106e46110f5565b5b60200260200101516106f4565b815b905060008060008060008060008b73ffffffffffffffffffffffffffffffffffffffff16634b29b668896040518263ffffffff1660e01b815260040161073a9190610ea1565b6101a060405180830381865afa158015610758573d6000803e3d6000fd5b505050506040513d601f19601f8201168201806040525081019061077c9190611027565b985050509650965096509650965096506040518060e001604052808873ffffffffffffffffffffffffffffffffffffffff1681526020018573ffffffffffffffffffffffffffffffffffffffff168152602001828152602001848152602001838152602001878152602001868152508d8a815181106107fe576107fd6110f5565b5b60200260200101819052505050505050505050808061081c906111c2565b91505061067b565b50505050949350505050565b6040518060600160405280600073ffffffffffffffffffffffffffffffffffffffff16815260200160008152602001600081525090565b6040518060e00160405280600073ffffffffffffffffffffffffffffffffffffffff168152602001600073ffffffffffffffffffffffffffffffffffffffff1681526020016000815260200160008152602001600081526020016108c96108dc565b81526020016108d6610903565b81525090565b60405180606001604052806000151581526020016000151581526020016000151581525090565b60405180606001604052806000151581526020016000151581526020016000151581525090565b6000604051905090565b600080fd5b600080fd5b600073ffffffffffffffffffffffffffffffffffffffff82169050919050565b60006109698261093e565b9050919050565b6109798161095e565b811461098457600080fd5b50565b60008135905061099681610970565b92915050565b6000819050919050565b6109af8161099c565b81146109ba57600080fd5b50565b6000813590506109cc816109a6565b92915050565b6000806000606084860312156109eb576109ea610934565b5b60006109f986828701610987565b9350506020610a0a86828701610987565b9250506040610a1b868287016109bd565b9150509250925092565b600081519050919050565b600082825260208201905092915050565b6000819050602082019050919050565b610a5a8161095e565b82525050565b610a698161099c565b82525050565b606082016000820151610a856000850182610a51565b506020820151610a986020850182610a60565b506040820151610aab6040850182610a60565b50505050565b6000610abd8383610a6f565b60608301905092915050565b6000602082019050919050565b6000610ae182610a25565b610aeb8185610a30565b9350610af683610a41565b8060005b83811015610b27578151610b0e8882610ab1565b9750610b1983610ac9565b925050600181019050610afa565b5085935050505092915050565b60006020820190508181036000830152610b4e8184610ad6565b905092915050565b60008060008060808587031215610b7057610b6f610934565b5b6000610b7e87828801610987565b9450506020610b8f87828801610987565b9350506040610ba0878288016109bd565b9250506060610bb1878288016109bd565b91505092959194509250565b600081519050919050565b600082825260208201905092915050565b6000819050602082019050919050565b60008115159050919050565b610bfe81610be9565b82525050565b606082016000820151610c1a6000850182610bf5565b506020820151610c2d6020850182610bf5565b506040820151610c406040850182610bf5565b50505050565b606082016000820151610c5c6000850182610bf5565b506020820151610c6f6020850182610bf5565b506040820151610c826040850182610bf5565b50505050565b61016082016000820151610c9f6000850182610a51565b506020820151610cb26020850182610a51565b506040820151610cc56040850182610a60565b506060820151610cd86060850182610a60565b506080820151610ceb6080850182610a60565b5060a0820151610cfe60a0850182610c04565b5060c0820151610d12610100850182610c46565b50505050565b6000610d248383610c88565b6101608301905092915050565b6000602082019050919050565b6000610d4982610bbd565b610d538185610bc8565b9350610d5e83610bd9565b8060005b83811015610d8f578151610d768882610d18565b9750610d8183610d31565b925050600181019050610d62565b5085935050505092915050565b60006020820190508181036000830152610db68184610d3e565b905092915050565b600081519050610dcd816109a6565b92915050565b600060208284031215610de957610de8610934565b5b6000610df784828501610dbe565b91505092915050565b7f4e487b7100000000000000000000000000000000000000000000000000000000600052604160045260246000fd5b7f4e487b7100000000000000000000000000000000000000000000000000000000600052601160045260246000fd5b6000610e698261099c565b9150610e748361099c565b925082821015610e8757610e86610e2f565b5b828203905092915050565b610e9b8161099c565b82525050565b6000602082019050610eb66000830184610e92565b92915050565b600081519050610ecb81610970565b92915050565b600080fd5b6000601f19601f8301169050919050565b610ef082610ed6565b810181811067ffffffffffffffff82111715610f0f57610f0e610e00565b5b80604052505050565b6000610f2261092a565b9050610f2e8282610ee7565b919050565b610f3c81610be9565b8114610f4757600080fd5b50565b600081519050610f5981610f33565b92915050565b600060608284031215610f7557610f74610ed1565b5b610f7f6060610f18565b90506000610f8f84828501610f4a565b6000830152506020610fa384828501610f4a565b6020830152506040610fb784828501610f4a565b60408301525092915050565b600060608284031215610fd957610fd8610ed1565b5b610fe36060610f18565b90506000610ff384828501610f4a565b600083015250602061100784828501610f4a565b602083015250604061101b84828501610f4a565b60408301525092915050565b60008060008060008060008060006101a08a8c03121561104a57611049610934565b5b60006110588c828d01610ebc565b99505060206110698c828d01610f5f565b985050608061107a8c828d01610fc3565b97505060e061108b8c828d01610ebc565b96505061010061109d8c828d01610dbe565b9550506101206110af8c828d01610dbe565b9450506101406110c18c828d01610dbe565b9350506101606110d38c828d01610dbe565b9250506101806110e58c828d01610dbe565b9150509295985092959850929598565b7f4e487b7100000000000000000000000000000000000000000000000000000000600052603260045260246000fd5b600061112f8261099c565b91507fffffffffffffffffffffffffffffffffffffffffffffffffffffffffffffffff820361116157611160610e2f565b5b600182019050919050565b60006111778261099c565b91506111828361099c565b9250827fffffffffffffffffffffffffffffffffffffffffffffffffffffffffffffffff038211156111b7576111b6610e2f565b5b828201905092915050565b60006111cd8261099c565b9150600082036111e0576111df610e2f565b5b600182039050919050565b6111f48161095e565b82525050565b600060208201905061120f60008301846111eb565b92915050565b600080fd5b600067ffffffffffffffff82111561123557611234610e00565b5b602082029050602081019050919050565b600080fd5b600061125e6112598461121a565b610f18565b9050808382526020820190506020840283018581111561128157611280611246565b5b835b818110156112aa57806112968882610dbe565b845260208401935050602081019050611283565b5050509392505050565b600082601f8301126112c9576112c8611215565b5b81516112d984826020860161124b565b91505092915050565b6000602082840312156112f8576112f7610934565b5b600082015167ffffffffffffffff81111561131657611315610939565b5b611322848285016112b4565b9150509291505056fea2646970667358221220e6bc9fc597ccdde2250878bb8cf84df77de16d2b7077440e2a38350db6bad20564736f6c634300080d0033",
  "linkReferences": {},
  "deployedLinkReferences": {}
}