{
  "abi": [
    {
      "type": "constructor",
      "inputs": [],
      "stateMutability": "nonpayable"
    },
    {
      "type": "fallback",
      "stateMutability": "payable"
    },
    {
      "type": "receive",
      "stateMutability": "payable"
    },
    {
      "type": "function",
      "name": "clientWallet",
      "inputs": [],
      "outputs": [
        {
          "name": "",
          "type": "address",
          "internalType": "address"
        }
      ],
      "stateMutability": "view"
    },
    {
      "type": "function",
      "name": "dankPools",
      "inputs": [
        {
          "name": "token",
          "type": "address",
          "internalType": "address"
        }
      ],
      "outputs": [
        {
          "name": "pool",
          "type": "address",
          "internalType": "address"
        }
      ],
      "stateMutability": "view"
    },
    {
      "type": "function",
      "name": "initialize",
      "inputs": [
        {
          "name": "_owner",
          "type": "address",
          "internalType": "address"
        },
        {
          "name": "_client",
          "type": "address",
          "internalType": "address"
        },
        {
          "name": "_router",
          "type": "address",
          "internalType": "address"
        },
        {
          "name": "_feeTo",
          "type": "address",
          "internalType": "address"
        },
        {
          "name": "_feeBps",
          "type": "uint256",
          "internalType": "uint256"
        },
        {
          "name": "_numConfirmations",
          "type": "uint256",
          "internalType": "uint256"
        }
      ],
      "outputs": [],
      "stateMutability": "nonpayable"
    },
    {
      "type": "function",
      "name": "kick",
      "inputs": [
        {
          "name": "token",
          "type": "address",
          "internalType": "address"
        },
        {
          "name": "amount",
          "type": "uint256",
          "internalType": "uint256"
        },
        {
          "name": "prediction",
          "type": "tuple",
          "internalType": "struct DankKicks.GoalPrediction",
          "components": [
            {
              "name": "isSuccess",
              "type": "bool",
              "internalType": "bool"
            },
            {
              "name": "direction",
              "type": "bool",
              "internalType": "bool"
            },
            {
              "name": "haveDirection",
              "type": "bool",
              "internalType": "bool"
            }
          ]
        }
      ],
      "outputs": [
        {
          "name": "gameId",
          "type": "uint256",
          "internalType": "uint256"
        }
      ],
      "stateMutability": "payable"
    },
    {
      "type": "function",
      "name": "kickCallback",
      "inputs": [
        {
          "name": "_nonce",
          "type": "uint256",
          "internalType": "uint256"
        },
        {
          "name": "rngList",
          "type": "uint256[]",
          "internalType": "uint256[]"
        }
      ],
      "outputs": [
        {
          "name": "gameId",
          "type": "uint256",
          "internalType": "uint256"
        },
        {
          "name": "isWin",
          "type": "bool",
          "internalType": "bool"
        }
      ],
      "stateMutability": "nonpayable"
    },
    {
      "type": "function",
      "name": "kickInfo",
      "inputs": [
        {
          "name": "gameId",
          "type": "uint256",
          "internalType": "uint256"
        }
      ],
      "outputs": [
        {
          "name": "kicker",
          "type": "address",
          "internalType": "address"
        },
        {
          "name": "prediction",
          "type": "tuple",
          "internalType": "struct DankKicks.GoalPrediction",
          "components": [
            {
              "name": "isSuccess",
              "type": "bool",
              "internalType": "bool"
            },
            {
              "name": "direction",
              "type": "bool",
              "internalType": "bool"
            },
            {
              "name": "haveDirection",
              "type": "bool",
              "internalType": "bool"
            }
          ]
        },
        {
          "name": "result",
          "type": "tuple",
          "internalType": "struct DankKicks.GameResult",
          "components": [
            {
              "name": "isSuccess",
              "type": "bool",
              "internalType": "bool"
            },
            {
              "name": "direction",
              "type": "bool",
              "internalType": "bool"
            },
            {
              "name": "isWin",
              "type": "bool",
              "internalType": "bool"
            }
          ]
        },
        {
          "name": "token",
          "type": "address",
          "internalType": "address"
        },
        {
          "name": "amount",
          "type": "uint256",
          "internalType": "uint256"
        },
        {
          "name": "reward",
          "type": "uint256",
          "internalType": "uint256"
        },
        {
          "name": "rng",
          "type": "uint256",
          "internalType": "uint256"
        },
        {
          "name": "createdAt",
          "type": "uint256",
          "internalType": "uint256"
        },
        {
          "name": "endedAt",
          "type": "uint256",
          "internalType": "uint256"
        }
      ],
      "stateMutability": "view"
    },
    {
      "type": "function",
      "name": "lastGameId",
      "inputs": [],
      "outputs": [
        {
          "name": "",
          "type": "uint256",
          "internalType": "uint256"
        }
      ],
      "stateMutability": "view"
    },
    {
      "type": "function",
      "name": "manualExecution",
      "inputs": [],
      "outputs": [],
      "stateMutability": "nonpayable"
    },
    {
      "type": "function",
      "name": "numConfirmations",
      "inputs": [],
      "outputs": [
        {
          "name": "",
          "type": "uint256",
          "internalType": "uint256"
        }
      ],
      "stateMutability": "view"
    },
    {
      "type": "function",
      "name": "owner",
      "inputs": [],
      "outputs": [
        {
          "name": "",
          "type": "address",
          "internalType": "address"
        }
      ],
      "stateMutability": "view"
    },
    {
      "type": "function",
      "name": "renounceOwnership",
      "inputs": [],
      "outputs": [],
      "stateMutability": "nonpayable"
    },
    {
      "type": "function",
      "name": "totalBetting",
      "inputs": [
        {
          "name": "token",
          "type": "address",
          "internalType": "address"
        }
      ],
      "outputs": [
        {
          "name": "pendings",
          "type": "uint256",
          "internalType": "uint256"
        }
      ],
      "stateMutability": "view"
    },
    {
      "type": "function",
      "name": "totalGameId",
      "inputs": [],
      "outputs": [
        {
          "name": "",
          "type": "uint256",
          "internalType": "uint256"
        }
      ],
      "stateMutability": "view"
    },
    {
      "type": "function",
      "name": "transferOwnership",
      "inputs": [
        {
          "name": "newOwner",
          "type": "address",
          "internalType": "address"
        }
      ],
      "outputs": [],
      "stateMutability": "nonpayable"
    },
    {
      "type": "function",
      "name": "updatePool",
      "inputs": [
        {
          "name": "tokens",
          "type": "address[]",
          "internalType": "address[]"
        },
        {
          "name": "pools",
          "type": "address[]",
          "internalType": "address[]"
        }
      ],
      "outputs": [],
      "stateMutability": "nonpayable"
    },
    {
      "type": "function",
      "name": "userGameIds",
      "inputs": [
        {
          "name": "kicker",
          "type": "address",
          "internalType": "address"
        },
        {
          "name": "",
          "type": "uint256",
          "internalType": "uint256"
        }
      ],
      "outputs": [
        {
          "name": "games",
          "type": "uint256",
          "internalType": "uint256"
        }
      ],
      "stateMutability": "view"
    },
    {
      "type": "function",
      "name": "vrfRouter",
      "inputs": [],
      "outputs": [
        {
          "name": "",
          "type": "address",
          "internalType": "contract IVrfRouter"
        }
      ],
      "stateMutability": "view"
    },
    {
      "type": "event",
      "name": "CreateGame",
      "inputs": [
        {
          "name": "user",
          "type": "address",
          "indexed": true,
          "internalType": "address"
        },
        {
          "name": "gameId",
          "type": "uint256",
          "indexed": true,
          "internalType": "uint256"
        },
        {
          "name": "token",
          "type": "address",
          "indexed": false,
          "internalType": "address"
        },
        {
          "name": "amount",
          "type": "uint256",
          "indexed": false,
          "internalType": "uint256"
        },
        {
          "name": "prediction",
          "type": "tuple",
          "indexed": false,
          "internalType": "struct DankKicks.GoalPrediction",
          "components": [
            {
              "name": "isSuccess",
              "type": "bool",
              "internalType": "bool"
            },
            {
              "name": "direction",
              "type": "bool",
              "internalType": "bool"
            },
            {
              "name": "haveDirection",
              "type": "bool",
              "internalType": "bool"
            }
          ]
        }
      ],
      "anonymous": false
    },
    {
      "type": "event",
      "name": "EndGame",
      "inputs": [
        {
          "name": "user",
          "type": "address",
          "indexed": true,
          "internalType": "address"
        },
        {
          "name": "gameId",
          "type": "uint256",
          "indexed": true,
          "internalType": "uint256"
        },
        {
          "name": "token",
          "type": "address",
          "indexed": false,
          "internalType": "address"
        },
        {
          "name": "reward",
          "type": "uint256",
          "indexed": false,
          "internalType": "uint256"
        },
        {
          "name": "result",
          "type": "tuple",
          "indexed": false,
          "internalType": "struct DankKicks.GameResult",
          "components": [
            {
              "name": "isSuccess",
              "type": "bool",
              "internalType": "bool"
            },
            {
              "name": "direction",
              "type": "bool",
              "internalType": "bool"
            },
            {
              "name": "isWin",
              "type": "bool",
              "internalType": "bool"
            }
          ]
        }
      ],
      "anonymous": false
    },
    {
      "type": "event",
      "name": "Initialized",
      "inputs": [
        {
          "name": "version",
          "type": "uint64",
          "indexed": false,
          "internalType": "uint64"
        }
      ],
      "anonymous": false
    },
    {
      "type": "event",
      "name": "ManualExecution",
      "inputs": [
        {
          "name": "caller",
          "type": "address",
          "indexed": true,
          "internalType": "address"
        },
        {
          "name": "numConfirmations",
          "type": "uint256",
          "indexed": false,
          "internalType": "uint256"
        },
        {
          "name": "clientWallet",
          "type": "address",
          "indexed": false,
          "internalType": "address"
        },
        {
          "name": "timestamp",
          "type": "uint256",
          "indexed": false,
          "internalType": "uint256"
        }
      ],
      "anonymous": false
    },
    {
      "type": "event",
      "name": "OwnershipTransferred",
      "inputs": [
        {
          "name": "previousOwner",
          "type": "address",
          "indexed": true,
          "internalType": "address"
        },
        {
          "name": "newOwner",
          "type": "address",
          "indexed": true,
          "internalType": "address"
        }
      ],
      "anonymous": false
    },
    {
      "type": "error",
      "name": "AddressEmptyCode",
      "inputs": [
        {
          "name": "target",
          "type": "address",
          "internalType": "address"
        }
      ]
    },
    {
      "type": "error",
      "name": "AddressInsufficientBalance",
      "inputs": [
        {
          "name": "account",
          "type": "address",
          "internalType": "address"
        }
      ]
    },
    {
      "type": "error",
      "name": "FailedInnerCall",
      "inputs": []
    },
    {
      "type": "error",
      "name": "InvalidAddress",
      "inputs": []
    },
    {
      "type": "error",
      "name": "InvalidInitialization",
      "inputs": []
    },
    {
      "type": "error",
      "name": "InvalidLength",
      "inputs": []
    },
    {
      "type": "error",
      "name": "NotInitializing",
      "inputs": []
    },
    {
      "type": "error",
      "name": "OwnableInvalidOwner",
      "inputs": [
        {
          "name": "owner",
          "type": "address",
          "internalType": "address"
        }
      ]
    },
    {
      "type": "error",
      "name": "OwnableUnauthorizedAccount",
      "inputs": [
        {
          "name": "account",
          "type": "address",
          "internalType": "address"
        }
      ]
    },
    {
      "type": "error",
      "name": "SafeERC20FailedOperation",
      "inputs": [
        {
          "name": "token",
          "type": "address",
          "internalType": "address"
        }
      ]
    },
    {
      "type": "error",
      "name": "UnAuthorizedRouter",
      "inputs": [
        {
          "name": "",
          "type": "address",
          "internalType": "address"
        }
      ]
    },
    {
      "type": "error",
      "name": "UnsupportedToken",
      "inputs": [
        {
          "name": "",
          "type": "address",
          "internalType": "address"
        }
      ]
    }
  ],
  "bytecode": {
    "object": "0x6080604052600980546001600160a01b03191673420000000000000000000000000000000000000117905534801561003657600080fd5b5061003f610044565b6100f6565b7ff0c57e16840df040f15088dc2f81fe391c3923bec73e23a9662efc9c229c6a00805468010000000000000000900460ff16156100945760405163f92ee8a960e01b815260040160405180910390fd5b80546001600160401b03908116146100f35780546001600160401b0319166001600160401b0390811782556040519081527fc7f505b2f371ae2175ee4913f4499e1f2633a7b5936321eed1cdaeb6115181d29060200160405180910390a15b50565b611cf8806101056000396000f3fe6080604052600436106100f65760003560e01c80638da5cb5b1161008f578063d3be4fe311610061578063d3be4fe314610398578063d7c41c79146103b8578063dc108deb146103d8578063de60b12e146103ee578063f2fde38b1461040157005b80638da5cb5b146102ee578063934083a91461032b578063b1dbe9e714610358578063c5742f281461037857005b806348f365f2116100c857806348f365f2146101c15780634b29b668146101d6578063715018a6146102b957806373c51751146102ce57005b80630e29fef8146100ff5780631967fc47146101395780633ee9d6481461015d578063453f3f941461017357005b366100fd57005b005b34801561010b57600080fd5b5061011f61011a36600461173d565b610421565b604080519283529015156020830152015b60405180910390f35b34801561014557600080fd5b5061014f60045481565b604051908152602001610130565b34801561016957600080fd5b5061014f60055481565b34801561017f57600080fd5b506101a961018e3660046117d8565b6000602081905290815260409020546001600160a01b031681565b6040516001600160a01b039091168152602001610130565b3480156101cd57600080fd5b506100fd61071b565b3480156101e257600080fd5b506102a46101f13660046117f3565b6002602081815260009283526040928390208054845160608082018752600184015460ff808216151584526101008083048216151585890152620100009283900482161515858b015289519384018a5297860154808216151584529788048116151596830196909652909504909316151594840194909452600381015460048201546005830154600684015460078501546008909501546001600160a01b03988916989697969094169492939192909189565b6040516101309998979695949392919061180c565b3480156102c557600080fd5b506100fd610830565b3480156102da57600080fd5b506007546101a9906001600160a01b031681565b3480156102fa57600080fd5b507f9016d09d72d40fdae2fd8ceac6b6234c7706214fd39c1cd1e609a0528c199300546001600160a01b03166101a9565b34801561033757600080fd5b5061014f6103463660046117d8565b60016020526000908152604090205481565b34801561036457600080fd5b506100fd61037336600461195a565b610844565b34801561038457600080fd5b506006546101a9906001600160a01b031681565b3480156103a457600080fd5b5061014f6103b33660046119be565b6108f4565b3480156103c457600080fd5b506100fd6103d33660046119e8565b610925565b3480156103e457600080fd5b5061014f60085481565b61014f6103fc366004611a5c565b610a5f565b34801561040d57600080fd5b506100fd61041c3660046117d8565b610e73565b60065460009081906001600160a01b0316331461045857604051631c37252960e21b81523360048201526024015b60405180910390fd5b60056000815461046790611b15565b9182905550600081815260026020526040902080546003820154600483015493955091926001600160a01b039182169290911690826104d55760405162461bcd60e51b815260206004820152600a6024820152694e6f20486973746f727960b01b604482015260640161044f565b6008840154156105155760405162461bcd60e51b815260206004820152600b60248201526a105b1c9958591e48115b9960aa1b604482015260640161044f565b60008888600081811061052a5761052a611b2e565b6020029190910135600687018190559150600090508061058a61054e600485611b5a565b6040805160608101825260018b015460ff8082161515835261010082048116151560208401526201000090910416151591810191909152610eb1565b815160028a0180546020808601516040808801511515620100000262ff0000199215156101000261ff00199715159790971661ffff19909516949094179590951716919091179091554260088c01556001600160a01b0389166000908152600190915290812080549395509193508692610605908490611b6e565b909155506000905060646106198387611b81565b6106239190611b98565b6001600160a01b038088166000908152602081905260409020549192501681156106b35760058901829055604051630a3ca38160e11b8152600481018390526001600160a01b03821690631479470290602401600060405180830381600087803b15801561069057600080fd5b505af11580156106a4573d6000803e3d6000fd5b505050506106b3878984610f57565b8a886001600160a01b03167f9d15be9b340b16b7dbb19e330a3410ba61147f8c9510db0369968905089682838985886040516106f193929190611bac565b60405180910390a350505060029095015460ff620100009091041695505050505050935093915050565b6005546004540361075e5760405162461bcd60e51b815260206004820152600d60248201526c416c6c47616d654973446f6e6560981b604482015260640161044f565b60065460085460075460405163d291ba0960e01b81526001600160a01b039384169363d291ba09936107999360019391921690600401611bf2565b6020604051808303816000875af11580156107b8573d6000803e3d6000fd5b505050506040513d601f19601f820116820180604052508101906107dc9190611c4a565b50600854600754604080519283526001600160a01b039091166020830152429082015233907f6d1272fff349310beff46b8c49746ce691a1cc611fd2d95189b1c0d3222f8e139060600160405180910390a2565b61083861108a565b61084260006110e5565b565b61084c61108a565b805182511461086e5760405163251f56a160e21b815260040160405180910390fd5b815160005b818110156108ee5782818151811061088d5761088d611b2e565b60200260200101516000808684815181106108aa576108aa611b2e565b6020908102919091018101516001600160a01b0390811683529082019290925260400160002080546001600160a01b03191692909116919091179055600101610873565b50505050565b6003602052816000526040600020818154811061091057600080fd5b90600052602060002001600091509150505481565b7ff0c57e16840df040f15088dc2f81fe391c3923bec73e23a9662efc9c229c6a008054600160401b810460ff16159067ffffffffffffffff1660008115801561096b5750825b905060008267ffffffffffffffff1660011480156109885750303b155b905081158015610996575080155b156109b45760405163f92ee8a960e01b815260040160405180910390fd5b845467ffffffffffffffff1916600117855583156109de57845460ff60401b1916600160401b1785555b6109e78a611156565b6109f08961119f565b6109fa88886111e8565b610a0386611277565b610a0c8b6112cf565b8315610a5257845460ff60401b19168555604051600181527fc7f505b2f371ae2175ee4913f4499e1f2633a7b5936321eed1cdaeb6115181d29060200160405180910390a15b5050505050505050505050565b600080610a6c85856112e0565b90506000859050600460008154610a8290611b15565b918290555092503415610afd57600960009054906101000a90046001600160a01b03166001600160a01b031663d0e30db0866040518263ffffffff1660e01b81526004016000604051808303818588803b158015610adf57600080fd5b505af1158015610af3573d6000803e3d6000fd5b5050505050610b11565b34600003610b1157610b11813330886114ba565b6000612710600b5487610b249190611b81565b610b2e9190611b98565b600a54909150610b499083906001600160a01b031683611521565b610b5d8284610b58848a611b6e565b611521565b60065460085460075460405163d291ba0960e01b81526001600160a01b039384169363d291ba0993610b989360019391921690600401611bf2565b6020604051808303816000875af1158015610bb7573d6000803e3d6000fd5b505050506040513d601f19601f82011682018060405250810190610bdb9190611c4a565b50604051806101200160405280336001600160a01b031681526020018681526020016040518060600160405280600015158152602001600015158152602001600015158152508152602001886001600160a01b03168152602001878152602001600081526020016000815260200142815260200160008152506002600086815260200190815260200160002060008201518160000160006101000a8154816001600160a01b0302191690836001600160a01b0316021790555060208201518160010160008201518160000160006101000a81548160ff02191690831515021790555060208201518160000160016101000a81548160ff02191690831515021790555060408201518160000160026101000a81548160ff021916908315150217905550505060408201518160020160008201518160000160006101000a81548160ff02191690831515021790555060208201518160000160016101000a81548160ff02191690831515021790555060408201518160000160026101000a81548160ff021916908315150217905550505060608201518160030160006101000a8154816001600160a01b0302191690836001600160a01b031602179055506080820151816004015560a0820151816005015560c0820151816006015560e0820151816007015561010082015181600801559050508560016000896001600160a01b03166001600160a01b031681526020019081526020016000206000828254610e029190611c63565b909155505033600081815260036020908152604080832080546001810182559084529190922001869055518591907f48c1fa88efb58b5406aa1515fb0a88931d67b5c3b61fd704775d7367af84fa2890610e61908b908b908b90611bac565b60405180910390a35050509392505050565b610e7b61108a565b6001600160a01b038116610ea557604051631e4fbdf760e01b81526000600482015260240161044f565b610eae816110e5565b50565b60408051606081018252600080825260208201819052918101829052906002841015610edc57600182525b610ee7600285611b5a565b600003610ef657600160208301525b826040015115610f3657815183511515901515148015610f2157508160200151151583602001511515145b15610f3157506001604082015260c35b610f50565b8151835190151590151503610f5057506001604082015260c35b9250929050565b6009546001600160a01b039081169084160361107a57600954604051632e1a7d4d60e01b8152600481018390526001600160a01b0390911690632e1a7d4d90602401600060405180830381600087803b158015610fb357600080fd5b505af1158015610fc7573d6000803e3d6000fd5b5050604080516000808252602082019283905293506001600160a01b03861692508491610ff49190611c76565b60006040518083038185875af1925050503d8060008114611031576040519150601f19603f3d011682016040523d82523d6000602084013e611036565b606091505b50509050806108ee5760405162461bcd60e51b815260206004820152601060248201526f2a3930b739b332b922aa2422b93937b960811b604482015260640161044f565b611085838383611521565b505050565b336110bc7f9016d09d72d40fdae2fd8ceac6b6234c7706214fd39c1cd1e609a0528c199300546001600160a01b031690565b6001600160a01b0316146108425760405163118cdaa760e01b815233600482015260240161044f565b7f9016d09d72d40fdae2fd8ceac6b6234c7706214fd39c1cd1e609a0528c19930080546001600160a01b031981166001600160a01b03848116918217845560405192169182907f8be0079c531659141344cd1fd0a4f28419497f9722a3daafe3b4186f6b6457e090600090a3505050565b6001600160a01b03811661117d5760405163e6c4247b60e01b815260040160405180910390fd5b600780546001600160a01b0319166001600160a01b0392909216919091179055565b6001600160a01b0381166111c65760405163e6c4247b60e01b815260040160405180910390fd5b600680546001600160a01b0319166001600160a01b0392909216919091179055565b6001600160a01b03821661120f5760405163e6c4247b60e01b815260040160405180910390fd5b6127108111156112515760405162461bcd60e51b815260206004820152600d60248201526c496e76616c696446656542707360981b604482015260640161044f565b600a80546001600160a01b0319166001600160a01b039390931692909217909155600b55565b60018110806112865750601481115b156112ca5760405162461bcd60e51b8152602060048201526014602482015273496e76616c6964436f6e6669726d6174696f6e7360601b604482015260640161044f565b600855565b6112d7611552565b610eae8161159b565b60095460009081906001600160a01b03858116911614341580159081906113045750815b1561136c5784341461134a5760405162461bcd60e51b815260206004820152600f60248201526e496e76616c696445544856616c756560881b604482015260640161044f565b6001600160a01b038087166000908152602081905260409020541692506113cd565b80611393576001600160a01b038087166000908152602081905260409020541692506113cd565b60405162461bcd60e51b815260206004820152600f60248201526e496e76616c696445544856616c756560881b604482015260640161044f565b6001600160a01b0383166113ff57604051635f8b555b60e11b81526001600160a01b038716600482015260240161044f565b6000836001600160a01b03166375c4b8166040518163ffffffff1660e01b8152600401602060405180830381865afa15801561143f573d6000803e3d6000fd5b505050506040513d601f19601f820116820180604052508101906114639190611c4a565b9050808611156114ad5760405162461bcd60e51b815260206004820152601560248201527410995d1d1a5b99d05b5bdd5b9d115e18d959591959605a1b604482015260640161044f565b5091925050505b92915050565b6040516001600160a01b0384811660248301528381166044830152606482018390526108ee9186918216906323b872dd906084015b604051602081830303815290604052915060e01b6020820180516001600160e01b0383818316178352505050506115a3565b6040516001600160a01b0383811660248301526044820183905261108591859182169063a9059cbb906064016114ef565b7ff0c57e16840df040f15088dc2f81fe391c3923bec73e23a9662efc9c229c6a0054600160401b900460ff1661084257604051631afcd79f60e31b815260040160405180910390fd5b610e7b611552565b60006115b86001600160a01b03841683611606565b905080516000141580156115dd5750808060200190518101906115db9190611ca5565b155b1561108557604051635274afe760e01b81526001600160a01b038416600482015260240161044f565b60606116148383600061161b565b9392505050565b6060814710156116405760405163cd78605960e01b815230600482015260240161044f565b600080856001600160a01b0316848660405161165c9190611c76565b60006040518083038185875af1925050503d8060008114611699576040519150601f19603f3d011682016040523d82523d6000602084013e61169e565b606091505b50915091506116ae8683836116b8565b9695505050505050565b6060826116cd576116c882611714565b611614565b81511580156116e457506001600160a01b0384163b155b1561170d57604051639996b31560e01b81526001600160a01b038516600482015260240161044f565b5080611614565b8051156117245780518082602001fd5b604051630a12f52160e11b815260040160405180910390fd5b60008060006040848603121561175257600080fd5b83359250602084013567ffffffffffffffff8082111561177157600080fd5b818601915086601f83011261178557600080fd5b81358181111561179457600080fd5b8760208260051b85010111156117a957600080fd5b6020830194508093505050509250925092565b80356001600160a01b03811681146117d357600080fd5b919050565b6000602082840312156117ea57600080fd5b611614826117bc565b60006020828403121561180557600080fd5b5035919050565b6001600160a01b038a811682526101a0820190611846602084018c8051151582526020808201511515908301526040908101511515910152565b89511515608084015260208a0151151560a084015260408a0151151560c08401529790971660e0820152610100810195909552610120850193909352610140840191909152610160830152610180909101529392505050565b634e487b7160e01b600052604160045260246000fd5b600082601f8301126118c657600080fd5b8135602067ffffffffffffffff808311156118e3576118e361189f565b8260051b604051601f19603f830116810181811084821117156119085761190861189f565b604052938452602081870181019490810192508785111561192857600080fd5b6020870191505b8482101561194f57611940826117bc565b8352918301919083019061192f565b979650505050505050565b6000806040838503121561196d57600080fd5b823567ffffffffffffffff8082111561198557600080fd5b611991868387016118b5565b935060208501359150808211156119a757600080fd5b506119b4858286016118b5565b9150509250929050565b600080604083850312156119d157600080fd5b6119da836117bc565b946020939093013593505050565b60008060008060008060c08789031215611a0157600080fd5b611a0a876117bc565b9550611a18602088016117bc565b9450611a26604088016117bc565b9350611a34606088016117bc565b92506080870135915060a087013590509295509295509295565b8015158114610eae57600080fd5b600080600083850360a0811215611a7257600080fd5b611a7b856117bc565b9350602085013592506060603f1982011215611a9657600080fd5b506040516060810181811067ffffffffffffffff82111715611aba57611aba61189f565b6040908152850135611acb81611a4e565b81526060850135611adb81611a4e565b60208201526080850135611aee81611a4e565b604082015292959194509192509050565b634e487b7160e01b600052601160045260246000fd5b600060018201611b2757611b27611aff565b5060010190565b634e487b7160e01b600052603260045260246000fd5b634e487b7160e01b600052601260045260246000fd5b600082611b6957611b69611b44565b500690565b818103818111156114b4576114b4611aff565b80820281158282048414176114b4576114b4611aff565b600082611ba757611ba7611b44565b500490565b6001600160a01b03841681526020810183905260a08101611bea60408301848051151582526020808201511515908301526040908101511515910152565b949350505050565b6080808252601f908201527f6b69636b43616c6c6261636b2875696e743235362c75696e743235365b5d290060a082015260ff93909316602084015260408301919091526001600160a01b0316606082015260c00190565b600060208284031215611c5c57600080fd5b5051919050565b808201808211156114b4576114b4611aff565b6000825160005b81811015611c975760208186018101518583015201611c7d565b506000920191825250919050565b600060208284031215611cb757600080fd5b815161161481611a4e56fea2646970667358221220e16708f4485972864e5a4e865659eb28fb648fc17e1f2af02584c368bb51cf1e64736f6c63430008180033",
    "linkReferences": {}
  },
  "methodIdentifiers": {
    "clientWallet()": "73c51751",
    "dankPools(address)": "453f3f94",
    "initialize(address,address,address,address,uint256,uint256)": "d7c41c79",
    "kick(address,uint256,(bool,bool,bool))": "de60b12e",
    "kickCallback(uint256,uint256[])": "0e29fef8",
    "kickInfo(uint256)": "4b29b668",
    "lastGameId()": "3ee9d648",
    "manualExecution()": "48f365f2",
    "numConfirmations()": "dc108deb",
    "owner()": "8da5cb5b",
    "renounceOwnership()": "715018a6",
    "totalBetting(address)": "934083a9",
    "totalGameId()": "1967fc47",
    "transferOwnership(address)": "f2fde38b",
    "updatePool(address[],address[])": "b1dbe9e7",
    "userGameIds(address,uint256)": "d3be4fe3",
    "vrfRouter()": "c5742f28"
  },
  "id": 60
}